{"abi":[{"type":"constructor","inputs":[{"name":"admin","type":"address","internalType":"address"},{"name":"guardian","type":"address","internalType":"address"},{"name":"wZIONAddr","type":"address","internalType":"address"},{"name":"validators","type":"address[]","internalType":"address[]"},{"name":"_threshold","type":"uint8","internalType":"uint8"}],"stateMutability":"nonpayable"},{"type":"function","name":"DEFAULT_ADMIN_ROLE","inputs":[],"outputs":[{"name":"","type":"bytes32","internalType":"bytes32"}],"stateMutability":"view"},{"type":"function","name":"GUARDIAN_ROLE","inputs":[],"outputs":[{"name":"","type":"bytes32","internalType":"bytes32"}],"stateMutability":"view"},{"type":"function","name":"L1_FINALITY_BLOCKS","inputs":[],"outputs":[{"name":"","type":"uint256","internalType":"uint256"}],"stateMutability":"view"},{"type":"function","name":"TIMELOCK_DELAY","inputs":[],"outputs":[{"name":"","type":"uint256","internalType":"uint256"}],"stateMutability":"view"},{"type":"function","name":"TIMELOCK_THRESHOLD","inputs":[],"outputs":[{"name":"","type":"uint256","internalType":"uint256"}],"stateMutability":"view"},{"type":"function","name":"VALIDATOR_ROLE","inputs":[],"outputs":[{"name":"","type":"bytes32","internalType":"bytes32"}],"stateMutability":"view"},{"type":"function","name":"addValidator","inputs":[{"name":"validator","type":"address","internalType":"address"}],"outputs":[],"stateMutability":"nonpayable"},{"type":"function","name":"burnReleases","inputs":[{"name":"","type":"bytes32","internalType":"bytes32"}],"outputs":[{"name":"evmBurner","type":"address","internalType":"address"},{"name":"amount","type":"uint256","internalType":"uint256"},{"name":"l1Recipient","type":"string","internalType":"string"},{"name":"burnId","type":"bytes32","internalType":"bytes32"},{"name":"submittedAt","type":"uint256","internalType":"uint256"},{"name":"confirmations","type":"uint8","internalType":"uint8"},{"name":"released","type":"bool","internalType":"bool"}],"stateMutability":"view"},{"type":"function","name":"confirmBurnRelease","inputs":[{"name":"burnId","type":"bytes32","internalType":"bytes32"},{"name":"evmBurner","type":"address","internalType":"address"},{"name":"amount","type":"uint256","internalType":"uint256"},{"name":"l1Recipient","type":"string","internalType":"string"}],"outputs":[],"stateMutability":"nonpayable"},{"type":"function","name":"dailyBurned","inputs":[],"outputs":[{"name":"","type":"uint256","internalType":"uint256"}],"stateMutability":"view"},{"type":"function","name":"dailyLimit","inputs":[],"outputs":[{"name":"","type":"uint256","internalType":"uint256"}],"stateMutability":"view"},{"type":"function","name":"dailyMinted","inputs":[],"outputs":[{"name":"","type":"uint256","internalType":"uint256"}],"stateMutability":"view"},{"type":"function","name":"dailyRemaining","inputs":[],"outputs":[{"name":"mintRemaining","type":"uint256","internalType":"uint256"},{"name":"burnRemaining","type":"uint256","internalType":"uint256"}],"stateMutability":"view"},{"type":"function","name":"dailyResetTimestamp","inputs":[],"outputs":[{"name":"","type":"uint256","internalType":"uint256"}],"stateMutability":"view"},{"type":"function","name":"executeTimelockedMint","inputs":[{"name":"l1TxHash","type":"bytes32","internalType":"bytes32"}],"outputs":[],"stateMutability":"nonpayable"},{"type":"function","name":"getBurnReleaseStatus","inputs":[{"name":"burnId","type":"bytes32","internalType":"bytes32"}],"outputs":[{"name":"confirmations","type":"uint8","internalType":"uint8"},{"name":"released","type":"bool","internalType":"bool"},{"name":"evmBurner","type":"address","internalType":"address"},{"name":"amount","type":"uint256","internalType":"uint256"},{"name":"l1Recipient","type":"string","internalType":"string"}],"stateMutability":"view"},{"type":"function","name":"getLockProofStatus","inputs":[{"name":"l1TxHash","type":"bytes32","internalType":"bytes32"}],"outputs":[{"name":"confirmations","type":"uint8","internalType":"uint8"},{"name":"executed","type":"bool","internalType":"bool"},{"name":"timelocked","type":"bool","internalType":"bool"},{"name":"timelockExpiry","type":"uint256","internalType":"uint256"},{"name":"recipient","type":"address","internalType":"address"},{"name":"amount","type":"uint256","internalType":"uint256"}],"stateMutability":"view"},{"type":"function","name":"getRoleAdmin","inputs":[{"name":"role","type":"bytes32","internalType":"bytes32"}],"outputs":[{"name":"","type":"bytes32","internalType":"bytes32"}],"stateMutability":"view"},{"type":"function","name":"grantRole","inputs":[{"name":"role","type":"bytes32","internalType":"bytes32"},{"name":"account","type":"address","internalType":"address"}],"outputs":[],"stateMutability":"nonpayable"},{"type":"function","name":"hasRole","inputs":[{"name":"role","type":"bytes32","internalType":"bytes32"},{"name":"account","type":"address","internalType":"address"}],"outputs":[{"name":"","type":"bool","internalType":"bool"}],"stateMutability":"view"},{"type":"function","name":"lockProofs","inputs":[{"name":"","type":"bytes32","internalType":"bytes32"}],"outputs":[{"name":"recipient","type":"address","internalType":"address"},{"name":"amount","type":"uint256","internalType":"uint256"},{"name":"l1BlockHeight","type":"uint256","internalType":"uint256"},{"name":"l1Sender","type":"string","internalType":"string"},{"name":"submittedAt","type":"uint256","internalType":"uint256"},{"name":"confirmations","type":"uint8","internalType":"uint8"},{"name":"executed","type":"bool","internalType":"bool"},{"name":"timelocked","type":"bool","internalType":"bool"},{"name":"timelockExpiry","type":"uint256","internalType":"uint256"}],"stateMutability":"view"},{"type":"function","name":"pause","inputs":[],"outputs":[],"stateMutability":"nonpayable"},{"type":"function","name":"paused","inputs":[],"outputs":[{"name":"","type":"bool","internalType":"bool"}],"stateMutability":"view"},{"type":"function","name":"removeValidator","inputs":[{"name":"validator","type":"address","internalType":"address"}],"outputs":[],"stateMutability":"nonpayable"},{"type":"function","name":"renounceRole","inputs":[{"name":"role","type":"bytes32","internalType":"bytes32"},{"name":"account","type":"address","internalType":"address"}],"outputs":[],"stateMutability":"nonpayable"},{"type":"function","name":"revokeRole","inputs":[{"name":"role","type":"bytes32","internalType":"bytes32"},{"name":"account","type":"address","internalType":"address"}],"outputs":[],"stateMutability":"nonpayable"},{"type":"function","name":"setDailyLimit","inputs":[{"name":"_dailyLimit","type":"uint256","internalType":"uint256"}],"outputs":[],"stateMutability":"nonpayable"},{"type":"function","name":"submitLockProof","inputs":[{"name":"l1TxHash","type":"bytes32","internalType":"bytes32"},{"name":"recipient","type":"address","internalType":"address"},{"name":"amount","type":"uint256","internalType":"uint256"},{"name":"l1BlockHeight","type":"uint256","internalType":"uint256"},{"name":"l1Sender","type":"string","internalType":"string"}],"outputs":[],"stateMutability":"nonpayable"},{"type":"function","name":"supportsInterface","inputs":[{"name":"interfaceId","type":"bytes4","internalType":"bytes4"}],"outputs":[{"name":"","type":"bool","internalType":"bool"}],"stateMutability":"view"},{"type":"function","name":"threshold","inputs":[],"outputs":[{"name":"","type":"uint8","internalType":"uint8"}],"stateMutability":"view"},{"type":"function","name":"totalBurnsProcessed","inputs":[],"outputs":[{"name":"","type":"uint256","internalType":"uint256"}],"stateMutability":"view"},{"type":"function","name":"totalLocksProcessed","inputs":[],"outputs":[{"name":"","type":"uint256","internalType":"uint256"}],"stateMutability":"view"},{"type":"function","name":"unpause","inputs":[],"outputs":[],"stateMutability":"nonpayable"},{"type":"function","name":"updateThreshold","inputs":[{"name":"_threshold","type":"uint8","internalType":"uint8"}],"outputs":[],"stateMutability":"nonpayable"},{"type":"function","name":"validatorCount","inputs":[],"outputs":[{"name":"","type":"uint8","internalType":"uint8"}],"stateMutability":"view"},{"type":"function","name":"wZION","inputs":[],"outputs":[{"name":"","type":"address","internalType":"contract IWZION"}],"stateMutability":"view"},{"type":"event","name":"BurnConfirmationSubmitted","inputs":[{"name":"burnId","type":"bytes32","indexed":true,"internalType":"bytes32"},{"name":"validator","type":"address","indexed":true,"internalType":"address"},{"name":"confirmations","type":"uint8","indexed":false,"internalType":"uint8"},{"name":"threshold","type":"uint8","indexed":false,"internalType":"uint8"}],"anonymous":false},{"type":"event","name":"BurnReleaseConfirmed","inputs":[{"name":"burnId","type":"bytes32","indexed":true,"internalType":"bytes32"},{"name":"l1Recipient","type":"string","indexed":false,"internalType":"string"},{"name":"amount","type":"uint256","indexed":false,"internalType":"uint256"}],"anonymous":false},{"type":"event","name":"DailyLimitReset","inputs":[{"name":"timestamp","type":"uint256","indexed":false,"internalType":"uint256"}],"anonymous":false},{"type":"event","name":"DailyLimitUpdated","inputs":[{"name":"oldLimit","type":"uint256","indexed":false,"internalType":"uint256"},{"name":"newLimit","type":"uint256","indexed":false,"internalType":"uint256"}],"anonymous":false},{"type":"event","name":"LockExecuted","inputs":[{"name":"l1TxHash","type":"bytes32","indexed":true,"internalType":"bytes32"},{"name":"recipient","type":"address","indexed":true,"internalType":"address"},{"name":"amount","type":"uint256","indexed":false,"internalType":"uint256"}],"anonymous":false},{"type":"event","name":"LockProofSubmitted","inputs":[{"name":"l1TxHash","type":"bytes32","indexed":true,"internalType":"bytes32"},{"name":"validator","type":"address","indexed":true,"internalType":"address"},{"name":"confirmations","type":"uint8","indexed":false,"internalType":"uint8"},{"name":"threshold","type":"uint8","indexed":false,"internalType":"uint8"}],"anonymous":false},{"type":"event","name":"LockTimelocked","inputs":[{"name":"l1TxHash","type":"bytes32","indexed":true,"internalType":"bytes32"},{"name":"expiresAt","type":"uint256","indexed":false,"internalType":"uint256"}],"anonymous":false},{"type":"event","name":"Paused","inputs":[{"name":"account","type":"address","indexed":false,"internalType":"address"}],"anonymous":false},{"type":"event","name":"RoleAdminChanged","inputs":[{"name":"role","type":"bytes32","indexed":true,"internalType":"bytes32"},{"name":"previousAdminRole","type":"bytes32","indexed":true,"internalType":"bytes32"},{"name":"newAdminRole","type":"bytes32","indexed":true,"internalType":"bytes32"}],"anonymous":false},{"type":"event","name":"RoleGranted","inputs":[{"name":"role","type":"bytes32","indexed":true,"internalType":"bytes32"},{"name":"account","type":"address","indexed":true,"internalType":"address"},{"name":"sender","type":"address","indexed":true,"internalType":"address"}],"anonymous":false},{"type":"event","name":"RoleRevoked","inputs":[{"name":"role","type":"bytes32","indexed":true,"internalType":"bytes32"},{"name":"account","type":"address","indexed":true,"internalType":"address"},{"name":"sender","type":"address","indexed":true,"internalType":"address"}],"anonymous":false},{"type":"event","name":"ThresholdUpdated","inputs":[{"name":"oldThreshold","type":"uint8","indexed":false,"internalType":"uint8"},{"name":"newThreshold","type":"uint8","indexed":false,"internalType":"uint8"}],"anonymous":false},{"type":"event","name":"Unpaused","inputs":[{"name":"account","type":"address","indexed":false,"internalType":"address"}],"anonymous":false},{"type":"event","name":"ValidatorAdded","inputs":[{"name":"validator","type":"address","indexed":true,"internalType":"address"}],"anonymous":false},{"type":"event","name":"ValidatorRemoved","inputs":[{"name":"validator","type":"address","indexed":true,"internalType":"address"}],"anonymous":false},{"type":"error","name":"AlreadyConfirmed","inputs":[{"name":"validator","type":"address","internalType":"address"},{"name":"id","type":"bytes32","internalType":"bytes32"}]},{"type":"error","name":"AlreadyExecuted","inputs":[{"name":"id","type":"bytes32","internalType":"bytes32"}]},{"type":"error","name":"DailyLimitExceeded","inputs":[{"name":"requested","type":"uint256","internalType":"uint256"},{"name":"remaining","type":"uint256","internalType":"uint256"}]},{"type":"error","name":"InsufficientFinality","inputs":[{"name":"currentHeight","type":"uint256","internalType":"uint256"},{"name":"requiredHeight","type":"uint256","internalType":"uint256"}]},{"type":"error","name":"InvalidThreshold","inputs":[{"name":"threshold","type":"uint8","internalType":"uint8"},{"name":"validators","type":"uint8","internalType":"uint8"}]},{"type":"error","name":"TimelockNotExpired","inputs":[{"name":"id","type":"bytes32","internalType":"bytes32"},{"name":"expiresAt","type":"uint256","internalType":"uint256"}]}],"bytecode":{"object":"0x608060405234801562000010575f80fd5b50604051620025a9380380620025a983398101604081905262000033916200036b565b6001805460ff191681556002556001600160a01b038516158015906200006157506001600160a01b03841615155b80156200007657506001600160a01b03831615155b620000b75760405162461bcd60e51b815260206004820152600c60248201526b5a65726f206164647265737360a01b60448201526064015b60405180910390fd5b8060ff16825110158015620000d0575060018160ff1610155b620001125760405162461bcd60e51b8152602060048201526011602482015270125b9d985b1a59081d1a1c995cda1bdb19607a1b6044820152606401620000ae565b6200011e5f866200028b565b6200014a7f55435dd261a4b9b3364963f7738a7a662ad9c84396d64be3365284bb7f0a5041856200028b565b5f5b825181101562000229575f6001600160a01b031683828151811062000175576200017562000484565b60200260200101516001600160a01b031603620001c65760405162461bcd60e51b815260206004820152600e60248201526d2d32b937903b30b634b230ba37b960911b6044820152606401620000ae565b620002147f21702c8af46127c7fa207f89d0b0a8441bb32959a0ac7df790e9ab1a25c9892684838151811062000200576200020062000484565b60200260200101516200028b60201b60201c565b80620002208162000498565b9150506200014c565b506004805492516001600160a01b03949094166001600160a81b031990931692909217600160a01b60ff928316021760ff60a81b1916600160a81b919093160291909117905550506b033b2e3c9fd0803ce800000060035542600955620004bd565b5f828152602081815260408083206001600160a01b038516845290915290205460ff1662000326575f828152602081815260408083206001600160a01b03851684529091529020805460ff19166001179055620002e53390565b6001600160a01b0316816001600160a01b0316837f2f8788117e7eff1d82e926ec794901d17c78024a50270940304540a733656f0d60405160405180910390a45b5050565b80516001600160a01b038116811462000341575f80fd5b919050565b634e487b7160e01b5f52604160045260245ffd5b805160ff8116811462000341575f80fd5b5f805f805f60a0868803121562000380575f80fd5b6200038b866200032a565b945060206200039c8188016200032a565b9450620003ac604088016200032a565b60608801519094506001600160401b0380821115620003c9575f80fd5b818901915089601f830112620003dd575f80fd5b815181811115620003f257620003f262000346565b8060051b604051601f19603f830116810181811085821117156200041a576200041a62000346565b60405291825284820192508381018501918c83111562000438575f80fd5b938501935b82851015620004615762000451856200032a565b845293850193928501926200043d565b80975050505050505062000478608087016200035a565b90509295509295909350565b634e487b7160e01b5f52603260045260245ffd5b5f60018201620004b657634e487b7160e01b5f52601160045260245ffd5b5060010190565b6120de80620004cb5f395ff3fe608060405234801561000f575f80fd5b5060043610610213575f3560e01c80635c975abb1161011f578063b20d30a9116100a9578063d547741f11610079578063d547741f14610515578063df49307d14610528578063f3df5b6914610553578063f5267af614610566578063f5ecb6e31461056f575f80fd5b8063b20d30a9146104a2578063c49baebe146104b5578063cbf0c0b6146104c9578063d48f224e146104f1575f80fd5b80638456cb59116100ef5780638456cb591461045b57806391d14854146104635780639f5fa2e414610476578063a217fddf1461047e578063a700361614610485575f80fd5b80635c975abb1461042b57806367eeba0c146104365780637f2671c11461043f5780638210482d14610448575f80fd5b80633f49376b116101a057806343ddd95b1161017057806343ddd95b146103e95780634d238c8e146103f25780634d37025c146104055780635aab8728146104185780635ba1c1a914610421575f80fd5b80633f49376b146103a75780633f4ba83a146103ba57806340a141ff146103c257806342cde4e8146103d5575f80fd5b806320686d41116101e657806320686d41146102a2578063248a9ca31461033657806324ea54f4146103585780632f2ff15d1461037f57806336568abe14610394575f80fd5b806301ffc9a714610217578063041da5a21461023f5780630d5c4430146102655780630f43a6771461027c575b5f80fd5b61022a610225366004611a8a565b610582565b60405190151581526020015b60405180910390f35b61025261024d366004611ab1565b6105b8565b6040516102369796959493929190611b15565b61026e60075481565b604051908152602001610236565b60045461029090600160a81b900460ff1681565b60405160ff9091168152602001610236565b6102f76102b0366004611ab1565b5f908152600560208190526040909120908101546006820154825460019093015460ff80841695610100850482169562010000909504909116936001600160a01b03169190565b6040805160ff909716875294151560208701529215159385019390935260608401526001600160a01b03909116608083015260a082015260c001610236565b61026e610344366004611ab1565b5f9081526020819052604090206001015490565b61026e7f55435dd261a4b9b3364963f7738a7a662ad9c84396d64be3365284bb7f0a504181565b61039261038d366004611b81565b61068a565b005b6103926103a2366004611b81565b6106b3565b6103926103b5366004611ab1565b610736565b61039261083d565b6103926103d0366004611bab565b61086f565b60045461029090600160a01b900460ff1681565b61026e600b5481565b610392610400366004611bab565b6109be565b61026e6b033b2e3c9fd0803ce800000081565b61026e60085481565b61026e6201518081565b60015460ff1661022a565b61026e60035481565b61026e60095481565b610392610456366004611c09565b610ae9565b610392610d13565b61022a610471366004611b81565b610d45565b61026e603c81565b61026e5f81565b61048d610d6d565b60408051928352602083019190915201610236565b6103926104b0366004611ab1565b610de5565b61026e5f8051602061208983398151915281565b6104dc6104d7366004611ab1565b610e6d565b60405161023699989796959493929190611c6c565b6105046104ff366004611ab1565b610f4f565b604051610236959493929190611ccc565b610392610523366004611b81565b611030565b60045461053b906001600160a01b031681565b6040516001600160a01b039091168152602001610236565b610392610561366004611d0e565b611054565b61026e600a5481565b61039261057d366004611d2e565b61111d565b5f6001600160e01b03198216637965db0b60e01b14806105b257506301ffc9a760e01b6001600160e01b03198316145b92915050565b60066020525f90815260409020805460018201546002830180546001600160a01b039093169391926105e990611d9a565b80601f016020809104026020016040519081016040528092919081815260200182805461061590611d9a565b80156106605780601f1061063757610100808354040283529160200191610660565b820191905f5260205f20905b81548152906001019060200180831161064357829003601f168201915b50505050600383015460048401546005909401549293909290915060ff8082169161010090041687565b5f828152602081905260409020600101546106a481611436565b6106ae8383611440565b505050565b6001600160a01b03811633146107285760405162461bcd60e51b815260206004820152602f60248201527f416363657373436f6e74726f6c3a2063616e206f6e6c792072656e6f756e636560448201526e103937b632b9903337b91039b2b63360891b60648201526084015b60405180910390fd5b61073282826114c3565b5050565b61073e611527565b61074661156f565b5f81815260056020819052604090912060045491810154909160ff600160a01b9091048116911610156107ad5760405162461bcd60e51b815260206004820152600f60248201526e10995b1bddc81d1a1c995cda1bdb19608a1b604482015260640161071f565b6005810154610100900460ff16156107db5760405163d1d36dcd60e01b81526004810183905260240161071f565b600581015462010000900460ff1680156107f85750806006015442105b156108265760068101546040516346f71e7f60e01b815261071f918491600401918252602082015260400190565b61082f826115c6565b5061083a6001600255565b50565b7f55435dd261a4b9b3364963f7738a7a662ad9c84396d64be3365284bb7f0a504161086781611436565b61083a611756565b5f61087981611436565b6108905f8051602061208983398151915283610d45565b6108ce5760405162461bcd60e51b815260206004820152600f60248201526e2737ba1030903b30b634b230ba37b960891b604482015260640161071f565b60045460ff600160a01b82048116916108f191600191600160a81b900416611de6565b60ff16101561093a5760405162461bcd60e51b815260206004820152601560248201527415dbdd5b1908189c99585ac81d1a1c995cda1bdb19605a1b604482015260640161071f565b6109515f80516020612089833981519152836114c3565b60048054600160a81b900460ff1690601561096b83611dff565b91906101000a81548160ff021916908360ff16021790555050816001600160a01b03167fe1434e25d6611e0db941968fdc97811c982ac1602e951637d206f5fdda9dd8f160405160405180910390a25050565b5f6109c881611436565b6001600160a01b038216610a0d5760405162461bcd60e51b815260206004820152600c60248201526b5a65726f206164647265737360a01b604482015260640161071f565b610a245f8051602061208983398151915283610d45565b15610a655760405162461bcd60e51b815260206004820152601160248201527020b63932b0b23c903b30b634b230ba37b960791b604482015260640161071f565b610a7c5f8051602061208983398151915283611440565b60048054600160a81b900460ff16906015610a9683611e1a565b91906101000a81548160ff021916908360ff16021790555050816001600160a01b03167fe366c1c0452ed8eec96861e9e54141ebff23c9ec89fe27b996b45f5ec388498760405160405180910390a25050565b5f80516020612089833981519152610b0081611436565b610b08611527565b610b1061156f565b5f8681526006602052604090206005810154610100900460ff1615610b4b5760405163d1d36dcd60e01b81526004810188905260240161071f565b335f90815260068201602052604090205460ff1615610b865760405163a299a1bf60e01b81523360048201526024810188905260440161071f565b600581015460ff165f03610bd25780546001600160a01b0319166001600160a01b0387161781556001810185905560028101610bc3848683611e91565b50600381018790554260048201555b335f9081526006820160205260408120805460ff1916600117905560058201805460ff1691610c0083611e1a565b82546101009290920a60ff8181021990931691831602179091556005830154600454604080519284168352600160a01b909104909216602082015233925089917f5d436515f3d72c2416af74c774a4e79f37861eb9e5b1b17590717321eddb3716910160405180910390a3600454600582015460ff600160a01b9092048216911610610d005760058101805461ff001916610100179055600b8054905f610ca683611f4d565b91905055508460085f828254610cbc9190611f65565b92505081905550867f778eac34e11bc6b643de7776f73e8139f7f486b49646d48f1b26d3a505e16996858588604051610cf793929190611f78565b60405180910390a25b50610d0b6001600255565b505050505050565b7f55435dd261a4b9b3364963f7738a7a662ad9c84396d64be3365284bb7f0a5041610d3d81611436565b61083a6117a9565b5f918252602082815260408084206001600160a01b0393909316845291905290205460ff1690565b5f8060095462015180610d809190611f65565b4210610d90575050600354908190565b5f6003546007541015610db257600754600354610dad9190611faf565b610db4565b5f5b90505f6003546008541015610dd857600854600354610dd39190611faf565b610dda565b5f5b919491935090915050565b5f610def81611436565b5f8211610e2b5760405162461bcd60e51b815260206004820152600a60248201526916995c9bc81b1a5b5a5d60b21b604482015260640161071f565b60035460408051918252602082018490527f207c4cbdf55ec315a13f0d5e047732ec5d947da056e706593aa509909941cedf910160405180910390a150600355565b60056020525f908152604090208054600182015460028301546003840180546001600160a01b03909416949293919291610ea690611d9a565b80601f0160208091040260200160405190810160405280929190818152602001828054610ed290611d9a565b8015610f1d5780601f10610ef457610100808354040283529160200191610f1d565b820191905f5260205f20905b815481529060010190602001808311610f0057829003601f168201915b50505050600483015460058401546006909401549293909260ff80831693506101008304811692620100009004169089565b5f818152600660205260408120600581015481546001830154600284018054869586958695606095929460ff8084169561010090940416936001600160a01b03909216928190610f9e90611d9a565b80601f0160208091040260200160405190810160405280929190818152602001828054610fca90611d9a565b80156110155780601f10610fec57610100808354040283529160200191611015565b820191905f5260205f20905b815481529060010190602001808311610ff857829003601f168201915b50505050509050955095509550955095505091939590929450565b5f8281526020819052604090206001015461104a81611436565b6106ae83836114c3565b5f61105e81611436565b60018260ff16108061107f575060045460ff600160a81b9091048116908316115b156110b95760048054604051630723958b60e51b815260ff80861693820193909352600160a81b909104909116602482015260440161071f565b6004805460ff848116600160a01b81810260ff60a01b1985161790945560408051949093049091168084526020840191909152917f5920ca2890264ef6c9608dea9738f388ec72a1d4028037e2ea5e0fb2f2262011910160405180910390a1505050565b5f8051602061208983398151915261113481611436565b61113c611527565b61114461156f565b61114c6117e4565b5f87815260056020819052604090912090810154610100900460ff16156111895760405163d1d36dcd60e01b81526004810189905260240161071f565b335f90815260078201602052604090205460ff16156111c45760405163a299a1bf60e01b81523360048201526024810189905260440161071f565b600581015460ff165f036112845780546001600160a01b0319166001600160a01b038816178155600181018690556002810185905560038101611208848683611e91565b504260048201556b033b2e3c9fd0803ce8000000861061127f5760058101805462ff00001916620100001790556112426201518042611f65565b6006820181905560405190815288907ff055e3a3ba062318dbee1bf471fb8f2cf04c88020ac29b1013b00775993d48c29060200160405180910390a25b611365565b80546001600160a01b038881169116146112d55760405162461bcd60e51b81526020600482015260126024820152710a4cac6d2e0d2cadce840dad2e6dac2e8c6d60731b604482015260640161071f565b8581600101541461131a5760405162461bcd60e51b815260206004820152600f60248201526e082dadeeadce840dad2e6dac2e8c6d608b1b604482015260640161071f565b848160020154146113655760405162461bcd60e51b8152602060048201526015602482015274084d8dec6d640d0cad2ced0e840dad2e6dac2e8c6d605b1b604482015260640161071f565b335f9081526007820160205260408120805460ff1916600117905560058201805460ff169161139383611e1a565b82546101009290920a60ff8181021990931691831602179091556005830154600454604080519284168352600160a01b90910490921660208201523392508a917f507dc51693d2c43300cce97992904e4941d33eab93273dd84c7934ca3ce73a26910160405180910390a3600454600582015460ff600160a01b909204821691161061142257611422886115c6565b5061142d6001600255565b50505050505050565b61083a8133611839565b61144a8282610d45565b610732575f828152602081815260408083206001600160a01b03851684529091529020805460ff1916600117905561147f3390565b6001600160a01b0316816001600160a01b0316837f2f8788117e7eff1d82e926ec794901d17c78024a50270940304540a733656f0d60405160405180910390a45050565b6114cd8282610d45565b15610732575f828152602081815260408083206001600160a01b0385168085529252808320805460ff1916905551339285917ff6391f5c32d9c69d2a47ea670b442974b53935d1edc7fd64eb21e047a839171b9190a45050565b60015460ff161561156d5760405162461bcd60e51b815260206004820152601060248201526f14185d5cd8589b194e881c185d5cd95960821b604482015260640161071f565b565b60028054036115c05760405162461bcd60e51b815260206004820152601f60248201527f5265656e7472616e637947756172643a207265656e7472616e742063616c6c00604482015260640161071f565b60028055565b5f8181526005602081905260409091209081015462010000900460ff1680156115f25750806006015442105b156115fb575050565b6116036117e4565b5f60075460035411611615575f611625565b6007546003546116259190611faf565b9050808260010154111561165c5760018201546040516377b326b560e11b815260048101919091526024810182905260440161071f565b60058201805461ff001916610100179055600a8054905f61167c83611f4d565b9190505550816001015460075f8282546116969190611f65565b9091555050600480548354600185015460405163f661e63160e01b81526001600160a01b0392831694810194909452602484015260448301869052169063f661e631906064015f604051808303815f87803b1580156116f3575f80fd5b505af1158015611705573d5f803e3d5ffd5b5050835460018501546040519081526001600160a01b0390911692508591507f9f2fd8fefb4e6bf8b432def64c933b9389a23d1be21ab4d911e913691b42654c9060200160405180910390a3505050565b61175e611892565b6001805460ff191690557f5db9ee0a495bf2e6ff9c91a7834c1ba4fdd244a5e8aa4e537bd38aeae4b073aa335b6040516001600160a01b0390911681526020015b60405180910390a1565b6117b1611527565b6001805460ff1916811790557f62e78cea01bee320cd4e420270b5ea74000d11b0c9f74754ebdbfc544b05a2583361178b565b6009546117f49062015180611f65565b421061156d575f60078190556008554260098190556040519081527f450d69a307fe727c4d16c9aa74048123badcca4d9a3070218b80892e26ee3a169060200161179f565b6118438282610d45565b61073257611850816118db565b61185b8360206118ed565b60405160200161186c929190611fc2565b60408051601f198184030181529082905262461bcd60e51b825261071f91600401612036565b60015460ff1661156d5760405162461bcd60e51b815260206004820152601460248201527314185d5cd8589b194e881b9bdd081c185d5cd95960621b604482015260640161071f565b60606105b26001600160a01b03831660145b60605f6118fb836002612048565b611906906002611f65565b67ffffffffffffffff81111561191e5761191e611e38565b6040519080825280601f01601f191660200182016040528015611948576020820181803683370190505b509050600360fc1b815f815181106119625761196261205f565b60200101906001600160f81b03191690815f1a905350600f60fb1b816001815181106119905761199061205f565b60200101906001600160f81b03191690815f1a9053505f6119b2846002612048565b6119bd906001611f65565b90505b6001811115611a34576f181899199a1a9b1b9c1cb0b131b232b360811b85600f16601081106119f1576119f161205f565b1a60f81b828281518110611a0757611a0761205f565b60200101906001600160f81b03191690815f1a90535060049490941c93611a2d81612073565b90506119c0565b508315611a835760405162461bcd60e51b815260206004820181905260248201527f537472696e67733a20686578206c656e67746820696e73756666696369656e74604482015260640161071f565b9392505050565b5f60208284031215611a9a575f80fd5b81356001600160e01b031981168114611a83575f80fd5b5f60208284031215611ac1575f80fd5b5035919050565b5f5b83811015611ae2578181015183820152602001611aca565b50505f910152565b5f8151808452611b01816020860160208601611ac8565b601f01601f19169290920160200192915050565b60018060a01b038816815286602082015260e060408201525f611b3b60e0830188611aea565b905085606083015284608083015260ff841660a083015282151560c083015298975050505050505050565b80356001600160a01b0381168114611b7c575f80fd5b919050565b5f8060408385031215611b92575f80fd5b82359150611ba260208401611b66565b90509250929050565b5f60208284031215611bbb575f80fd5b611a8382611b66565b5f8083601f840112611bd4575f80fd5b50813567ffffffffffffffff811115611beb575f80fd5b602083019150836020828501011115611c02575f80fd5b9250929050565b5f805f805f60808688031215611c1d575f80fd5b85359450611c2d60208701611b66565b935060408601359250606086013567ffffffffffffffff811115611c4f575f80fd5b611c5b88828901611bc4565b969995985093965092949392505050565b5f61012060018060a01b038c1683528a6020840152896040840152806060840152611c998184018a611aea565b6080840198909852505060ff9490941660a085015291151560c0840152151560e083015261010090910152949350505050565b60ff86168152841515602082015260018060a01b038416604082015282606082015260a060808201525f611d0360a0830184611aea565b979650505050505050565b5f60208284031215611d1e575f80fd5b813560ff81168114611a83575f80fd5b5f805f805f8060a08789031215611d43575f80fd5b86359550611d5360208801611b66565b94506040870135935060608701359250608087013567ffffffffffffffff811115611d7c575f80fd5b611d8889828a01611bc4565b979a9699509497509295939492505050565b600181811c90821680611dae57607f821691505b602082108103611dcc57634e487b7160e01b5f52602260045260245ffd5b50919050565b634e487b7160e01b5f52601160045260245ffd5b60ff82811682821603908111156105b2576105b2611dd2565b5f60ff821680611e1157611e11611dd2565b5f190192915050565b5f60ff821660ff8103611e2f57611e2f611dd2565b60010192915050565b634e487b7160e01b5f52604160045260245ffd5b601f8211156106ae575f81815260208120601f850160051c81016020861015611e725750805b601f850160051c820191505b81811015610d0b57828155600101611e7e565b67ffffffffffffffff831115611ea957611ea9611e38565b611ebd83611eb78354611d9a565b83611e4c565b5f601f841160018114611eee575f8515611ed75750838201355b5f19600387901b1c1916600186901b178355611f46565b5f83815260209020601f19861690835b82811015611f1e5786850135825560209485019460019092019101611efe565b5086821015611f3a575f1960f88860031b161c19848701351681555b505060018560011b0183555b5050505050565b5f60018201611f5e57611f5e611dd2565b5060010190565b808201808211156105b2576105b2611dd2565b60408152826040820152828460608301375f606084830101525f6060601f19601f8601168301019050826020830152949350505050565b818103818111156105b2576105b2611dd2565b7f416363657373436f6e74726f6c3a206163636f756e742000000000000000000081525f8351611ff9816017850160208801611ac8565b7001034b99036b4b9b9b4b733903937b6329607d1b601791840191820152835161202a816028840160208801611ac8565b01602801949350505050565b602081525f611a836020830184611aea565b80820281158282048414176105b2576105b2611dd2565b634e487b7160e01b5f52603260045260245ffd5b5f8161208157612081611dd2565b505f19019056fe21702c8af46127c7fa207f89d0b0a8441bb32959a0ac7df790e9ab1a25c98926a2646970667358221220cf456e9266b2ab80fedc2276433e7e32b1f2fcda8a37703cf07321641115e44864736f6c63430008140033","linkReferences":{}},"methodIdentifiers":{"DEFAULT_ADMIN_ROLE()":"a217fddf","GUARDIAN_ROLE()":"24ea54f4","L1_FINALITY_BLOCKS()":"9f5fa2e4","TIMELOCK_DELAY()":"5ba1c1a9","TIMELOCK_THRESHOLD()":"4d37025c","VALIDATOR_ROLE()":"c49baebe","addValidator(address)":"4d238c8e","burnReleases(bytes32)":"041da5a2","confirmBurnRelease(bytes32,address,uint256,string)":"8210482d","dailyBurned()":"5aab8728","dailyLimit()":"67eeba0c","dailyMinted()":"0d5c4430","dailyRemaining()":"a7003616","dailyResetTimestamp()":"7f2671c1","executeTimelockedMint(bytes32)":"3f49376b","getBurnReleaseStatus(bytes32)":"d48f224e","getLockProofStatus(bytes32)":"20686d41","getRoleAdmin(bytes32)":"248a9ca3","grantRole(bytes32,address)":"2f2ff15d","hasRole(bytes32,address)":"91d14854","lockProofs(bytes32)":"cbf0c0b6","pause()":"8456cb59","paused()":"5c975abb","removeValidator(address)":"40a141ff","renounceRole(bytes32,address)":"36568abe","revokeRole(bytes32,address)":"d547741f","setDailyLimit(uint256)":"b20d30a9","submitLockProof(bytes32,address,uint256,uint256,string)":"f5ecb6e3","supportsInterface(bytes4)":"01ffc9a7","threshold()":"42cde4e8","totalBurnsProcessed()":"43ddd95b","totalLocksProcessed()":"f5267af6","unpause()":"3f4ba83a","updateThreshold(uint8)":"f3df5b69","validatorCount()":"0f43a677","wZION()":"df49307d"},"id":11}