{"abi":[{"type":"constructor","inputs":[{"name":"_threshold","type":"uint256","internalType":"uint256"},{"name":"_maxGuardians","type":"uint256","internalType":"uint256"}],"stateMutability":"nonpayable"},{"type":"function","name":"addGuardian","inputs":[{"name":"_guardian","type":"address","internalType":"address"}],"outputs":[],"stateMutability":"nonpayable"},{"type":"function","name":"getGuardians","inputs":[],"outputs":[{"name":"","type":"address[5]","internalType":"address[5]"}],"stateMutability":"view"},{"type":"function","name":"getSignatureCount","inputs":[{"name":"opHash","type":"bytes32","internalType":"bytes32"}],"outputs":[{"name":"","type":"uint256","internalType":"uint256"}],"stateMutability":"view"},{"type":"function","name":"guardianAddresses","inputs":[{"name":"","type":"uint256","internalType":"uint256"}],"outputs":[{"name":"","type":"address","internalType":"address"}],"stateMutability":"view"},{"type":"function","name":"guardianCount","inputs":[],"outputs":[{"name":"","type":"uint256","internalType":"uint256"}],"stateMutability":"view"},{"type":"function","name":"hasSigned","inputs":[{"name":"","type":"bytes32","internalType":"bytes32"},{"name":"","type":"address","internalType":"address"}],"outputs":[{"name":"","type":"bool","internalType":"bool"}],"stateMutability":"view"},{"type":"function","name":"isGuardian","inputs":[{"name":"","type":"address","internalType":"address"}],"outputs":[{"name":"","type":"bool","internalType":"bool"}],"stateMutability":"view"},{"type":"function","name":"isOperationApproved","inputs":[{"name":"opHash","type":"bytes32","internalType":"bytes32"}],"outputs":[{"name":"","type":"bool","internalType":"bool"}],"stateMutability":"view"},{"type":"function","name":"removeGuardian","inputs":[{"name":"_guardian","type":"address","internalType":"address"}],"outputs":[],"stateMutability":"nonpayable"},{"type":"function","name":"resetSignatures","inputs":[{"name":"opHash","type":"bytes32","internalType":"bytes32"}],"outputs":[],"stateMutability":"nonpayable"},{"type":"function","name":"signOperation","inputs":[{"name":"opHash","type":"bytes32","internalType":"bytes32"}],"outputs":[],"stateMutability":"nonpayable"},{"type":"function","name":"signatureCount","inputs":[{"name":"","type":"bytes32","internalType":"bytes32"}],"outputs":[{"name":"","type":"uint256","internalType":"uint256"}],"stateMutability":"view"},{"type":"function","name":"threshold","inputs":[],"outputs":[{"name":"","type":"uint256","internalType":"uint256"}],"stateMutability":"view"},{"type":"event","name":"GuardianAdded","inputs":[{"name":"guardian","type":"address","indexed":true,"internalType":"address"},{"name":"index","type":"uint256","indexed":false,"internalType":"uint256"}],"anonymous":false},{"type":"event","name":"GuardianRemoved","inputs":[{"name":"guardian","type":"address","indexed":true,"internalType":"address"}],"anonymous":false},{"type":"event","name":"OperationReset","inputs":[{"name":"opHash","type":"bytes32","indexed":true,"internalType":"bytes32"}],"anonymous":false},{"type":"event","name":"OperationSigned","inputs":[{"name":"opHash","type":"bytes32","indexed":true,"internalType":"bytes32"},{"name":"guardian","type":"address","indexed":true,"internalType":"address"}],"anonymous":false},{"type":"event","name":"ThresholdChanged","inputs":[{"name":"newThreshold","type":"uint256","indexed":false,"internalType":"uint256"}],"anonymous":false}],"bytecode":{"object":"0x60a060405234801561000f575f80fd5b50604051610c66380380610c6683398101604081905261002e91610167565b5f8211801561003d5750808211155b6100995760405162461bcd60e51b815260206004820152602260248201527f42726964676556616c696461746f723a20696e76616c6964207468726573686f6044820152611b1960f21b60648201526084015b60405180910390fd5b806005146100f95760405162461bcd60e51b815260206004820152602760248201527f42726964676556616c696461746f723a206d6178477561726469616e73206d756044820152667374206265203560c81b6064820152608401610090565b608082905260015f818155338082526020838152604092839020805460ff191685179055600480546001600160a01b031916831790559151928352917f6276832b43b1ca1eab9c38b577dc5ba939a807f5ca7b7e5b6f1f09e80e487fad910160405180910390a25050610189565b5f8060408385031215610178575f80fd5b505080516020909101519092909150565b608051610ab76101af5f395f8181610168015281816101eb01526103560152610ab75ff3fe608060405234801561000f575f80fd5b50600436106100cb575f3560e01c806342cde4e81161008857806399843f3f1161006357806399843f3f1461022a578063a526d83b1461023d578063b3cc026d14610250578063d07a21841461026f575f80fd5b806342cde4e8146101e657806354387ad71461020d5780637140415614610215575f80fd5b80630665f04b146100cf5780630c68ba21146100ed578063209149391461011f578063247ccf831461014a57806329832c0f1461018c5780632bbe96bc146101b9575b5f80fd5b6100d7610282565b6040516100e49190610927565b60405180910390f35b61010f6100fb36600461097b565b60016020525f908152604090205460ff1681565b60405190151581526020016100e4565b61013261012d36600461099b565b6102c7565b6040516001600160a01b0390911681526020016100e4565b61010f61015836600461099b565b5f908152600360205260409020547f0000000000000000000000000000000000000000000000000000000000000000111590565b61010f61019a3660046109b2565b600260209081525f928352604080842090915290825290205460ff1681565b6101d86101c736600461099b565b5f9081526003602052604090205490565b6040519081526020016100e4565b6101d87f000000000000000000000000000000000000000000000000000000000000000081565b6101d85f5481565b61022861022336600461097b565b6102e6565b005b61022861023836600461099b565b61052c565b61022861024b36600461097b565b610630565b6101d861025e36600461099b565b60036020525f908152604090205481565b61022861027d36600461099b565b610839565b61028a610909565b6040805160a08101918290529060049060059082845b81546001600160a01b031681526001909101906020018083116102a0575050505050905090565b600481600581106102d6575f80fd5b01546001600160a01b0316905081565b335f9081526001602052604090205460ff1661031d5760405162461bcd60e51b8152600401610314906109dc565b60405180910390fd5b6001600160a01b0381165f9081526001602052604090205460ff166103545760405162461bcd60e51b8152600401610314906109dc565b7f00000000000000000000000000000000000000000000000000000000000000005f54116103d75760405162461bcd60e51b815260206004820152602a60248201527f42726964676556616c696461746f723a2063616e6e6f7420676f2062656c6f77604482015269081d1a1c995cda1bdb1960b21b6064820152608401610314565b6001600160a01b0381165f908152600160205260408120805460ff191690555b5f548110156104e257816001600160a01b03166004826005811061041d5761041d610a13565b01546001600160a01b0316036104d057600460015f5461043d9190610a3b565b6005811061044d5761044d610a13565b01546001600160a01b03166004826005811061046b5761046b610a13565b0180546001600160a01b0319166001600160a01b03929092169190911790555f805460049061049c90600190610a3b565b600581106104ac576104ac610a13565b0180546001600160a01b0319166001600160a01b03929092169190911790556104e2565b806104da81610a54565b9150506103f7565b505f805490806104f183610a6c565b90915550506040516001600160a01b038216907fb8107d0c6b40be480ce3172ee66ba6d64b71f6b1685a851340036e6e2e3e3c52905f90a250565b335f9081526001602052604090205460ff1661055a5760405162461bcd60e51b8152600401610314906109dc565b5f81815260026020908152604080832033845290915290205460ff16156105c35760405162461bcd60e51b815260206004820152601f60248201527f42726964676556616c696461746f723a20616c7265616479207369676e6564006044820152606401610314565b5f8181526002602090815260408083203384528252808320805460ff19166001179055838352600390915281208054916105fc83610a54565b9091555050604051339082907fd2daecf724f931db39c42cd7ea354fda24e016ce06032cb591448ff6c58c974b905f90a350565b335f9081526001602052604090205460ff1661065e5760405162461bcd60e51b8152600401610314906109dc565b6001600160a01b0381165f9081526001602052604090205460ff16156106d05760405162461bcd60e51b815260206004820152602160248201527f42726964676556616c696461746f723a20616c726561647920677561726469616044820152603760f91b6064820152608401610314565b6001600160a01b0381166107265760405162461bcd60e51b815260206004820152601d60248201527f42726964676556616c696461746f723a207a65726f20616464726573730000006044820152606401610314565b60055f54106107865760405162461bcd60e51b815260206004820152602660248201527f42726964676556616c696461746f723a206d617820677561726469616e732072604482015265195858da195960d21b6064820152608401610314565b6001600160a01b0381165f9081526001602081905260408220805460ff19169091179055548190600490600581106107c0576107c0610a13565b0180546001600160a01b0319166001600160a01b03929092169190911790555f805490806107ed83610a54565b9190505550806001600160a01b03167f6276832b43b1ca1eab9c38b577dc5ba939a807f5ca7b7e5b6f1f09e80e487fad5f5460405161082e91815260200190565b60405180910390a250565b335f9081526001602052604090205460ff166108675760405162461bcd60e51b8152600401610314906109dc565b5f5b5f548110156108ce575f828152600260205260408120816004846005811061089357610893610a13565b01546001600160a01b0316815260208101919091526040015f20805460ff1916911515919091179055806108c681610a54565b915050610869565b505f818152600360205260408082208290555182917f7a4dd3f8f023f418de0d15e23c1528e166216440fd44fe8968d4da2eabae7ee791a250565b6040518060a001604052806005906020820280368337509192915050565b60a0810181835f5b60058110156109575781516001600160a01b031683526020928301929091019060010161092f565b50505092915050565b80356001600160a01b0381168114610976575f80fd5b919050565b5f6020828403121561098b575f80fd5b61099482610960565b9392505050565b5f602082840312156109ab575f80fd5b5035919050565b5f80604083850312156109c3575f80fd5b823591506109d360208401610960565b90509250929050565b6020808252601f908201527f42726964676556616c696461746f723a206e6f74206120677561726469616e00604082015260600190565b634e487b7160e01b5f52603260045260245ffd5b634e487b7160e01b5f52601160045260245ffd5b81810381811115610a4e57610a4e610a27565b92915050565b5f60018201610a6557610a65610a27565b5060010190565b5f81610a7a57610a7a610a27565b505f19019056fea2646970667358221220728a07afc63ed76952ea0679be48a6f8a1fa1b668ef07ee16fc274ed21805d3164736f6c63430008140033","linkReferences":{}},"methodIdentifiers":{"addGuardian(address)":"a526d83b","getGuardians()":"0665f04b","getSignatureCount(bytes32)":"2bbe96bc","guardianAddresses(uint256)":"20914939","guardianCount()":"54387ad7","hasSigned(bytes32,address)":"29832c0f","isGuardian(address)":"0c68ba21","isOperationApproved(bytes32)":"247ccf83","removeGuardian(address)":"71404156","resetSignatures(bytes32)":"d07a2184","signOperation(bytes32)":"99843f3f","signatureCount(bytes32)":"b3cc026d","threshold()":"42cde4e8"},"id":10}